:020000040800F2
:10000000380600209D010008AB1C00087D18000880
:10001000A91C0008FD080008852700080000000052
:10002000000000000000000000000000892200081D
:10003000FF080008000000005F1F00088B22000876
:10004000B7010008B7010008B7010008B7010008B0
:10005000B7010008B7010008B7010008B7010008A0
:10006000B7010008B701000801090008B70100083E
:10007000B7010008B7010008B7010008B701000880
:10008000B7010008B7010008B7010008B701000870
:10009000B7010008B7010008B7010008B701000860
:1000A000B7010008B7010008B7010008B701000850
:1000B000B7010008B7010008B7010008B701000840
:1000C000B7010008B7010008B7010008B701000830
:1000D000B70100086D27000879270008B70100085C
:1000E000B7010008B7010008B7010008B701000810
:1000F000B7010008B7010008B7010008B701000800
:10010000B7010008B7010008B7010008B7010008EF
:10011000B7010008B7010008B7010008B7010008DF
:10012000B7010008B7010008B7010008B7010008CF
:10013000B7010008B7010008B7010008B7010008BF
:10014000B7010008B7010008B7010008B7010008AF
:10015000B7010008B7010008B7010008B70100089F
:10016000B7010008B7010008B7010008B70100088F
:10017000B7010008B7010008B7010008000000003F
:10018000B7010008B7010008DFF80CD000F0A4FBAD
:1001900000480047E1300008380600200648804744
:1001A00006480047FEE7FEE7FEE7FEE7FEE7FEE75C
:1001B000FEE7FEE7FEE7FEE71523000889010008D9
:1001C0002DE9F05F0546002092469B46884606468C
:1001D000814640241BE0284641464746224600F01F
:1001E000D4F953465A46C01A914110D311461846C5
:1001F000224600F0BBF92D1A67EB01084F46224654
:100200000120002100F0B2F917EB00094E41201E39
:10021000A4F10104DFDC484631462A464346BDE8E6
:10022000F09FD2B201E000F8012B491EFBD27047CB
:100230000022F6E710B513460A4604461946FFF7B2
:10024000F0FF204610BD034611F8012B00F8012BEA
:10025000002AF9D1184670472DE9FE4F804681EA01
:100260000300C00F0C46009021F0004123F0004530
:10027000B8EB0200A94105D24046214690461C46F3
:100280000B46024623F00040104347D0270DC7F32A
:100290000A00C3F30A510290401A019040286BDA19
:1002A000C3F3130040F4801B0098924620B1002352
:1002B000D2EB030A63EB0B0B01985946C0F14002E5
:1002C000504600F053F906460D4650465946019AED
:1002D00000F06BF910EB08006141002487EA11522D
:1002E00084EAE7731A4340D0009A62B3019A012A64
:1002F0004FEA075215DC001B61EB02014FF0004290
:1003000002EA0752CDE90042001C41F58011324655
:100310002B4600F0A2F903B0BDE8F08F404621461D
:10032000F9E7001B61EB0201001C41F58013001886
:100330005B412018A2F5001747EB030140EAD57096
:10034000B6196D4111E06D084FEA360645EAC075F1
:100350004FEA0752001B61EB0201001C41F58011BE
:1003600049084FEA30000019514132462B4603B08C
:10037000BDE8F04F00F062B9009801224000002370
:10038000D0EB020263EBE073009821464FEAE07481
:10039000B8EB000061EB0401E9E783F000435BE7A1
:1003A00081F0004158E72DE9FE4F81EA030404F093
:1003B000004421F0004100944FF0000B23F0004373
:1003C00050EA01045ED052EA03045BD0C3F30A543E
:1003D000C1F30A552C44A4F2F3340194A0FB025457
:1003E000C1F3130141F48011C3F3130343F48013E9
:1003F00001FB024400FB034E840A970A44EA81543D
:1004000047EA8357A4FB076802958D0A05FB078519
:100410004FEA932C04FB0C542705029D4FEA065823
:1004200047EA1637B5EB08056EEB070C870E920E00
:1004300047EA811742EA8312A7FB0201B6EB0B01E0
:1004400064EB00042B0D43EA0C335E1844EB1C50A4
:10045000DA465146E7FB0201C5F313044FEA0B33BA
:1004600043EA14534FEA0432019C43EA0603A4F121
:100470000C040294009CCDE900B400F0EEF803B047
:10048000BDE8F08F00200146F9E70EB540F2334198
:1004900002910021CDE900110A460B4600F0DDF87B
:1004A00003B000BD70B5C1F30A5201F0004500244D
:1004B000C1F3130140F2FF3341F480119A4201DA93
:1004C000002070BD40F233439A42A2F2334203DC73
:1004D000524200F05AF800E090402C43F1D04042E4
:1004E00070BD00F0004230F000400AD0C10D01F5AF
:1004F0006071C0F3160042EA0151C208400711437F
:10050000704700200146704701F0004330B421F0ED
:10051000004150EA010206D00A0DA2F56072C1F353
:100520001301002A02DC30BC00207047440F44EA6B
:10053000C104C100E01830BC00EBC25000F047B865
:1005400030B50B46014600202022012409E021FAA3
:1005500002F59D4205D303FA02F5491B04FA02F5A0
:100560002844151EA2F10102F1DC30BD202A04DB73
:10057000203A00FA02F1002070479140C2F12003B6
:1005800020FA03F3194390407047202A04DB203AF5
:1005900021FA02F00021704721FA02F3D040C2F1A3
:1005A00020029140084319467047202A06DBCB17EA
:1005B000203A41FA02F043EAE07306E041FA02F31E
:1005C000D040C2F1200291400843194670470029EB
:1005D000A8BF7047401C490008BF20F001007047C9
:1005E00010B4B0FA80FC00FA0CF050EA010404BF29
:1005F00010BC704749B1CCF1200421FA04F411FA7F
:100600000CF118BF012121430843A3EB0C01CB1DC2
:100610004FEA00614FEA102042BF002010BC704733
:1006200000EBC35010440029A4BF10BC7047401C0D
:10063000490008BF20F0010010BC704710B5141E1F
:1006400073F1000408DA401C41F1000192185B418B
:100650001A4301D120F0010010BD2DE9F04D924662
:100660009B4611B1B1FA81F202E0B0FA80F2203279
:100670009046FFF77BFF04460F4640EA0A0041EA36
:100680000B0153465A46084313D0114653EA010062
:1006900019D0C8F140025046FFF777FF05460E46D5
:1006A000504659464246FFF761FF084305D00120F6
:1006B00004E020463946BDE8F08D0020054346EAB7
:1006C000E0762C4337430A986305E40AA0EB080060
:1006D0000022FD0A44EA47540A3002D500200146B0
:1006E000E9E7010510196941DDE90845001969418B
:1006F000BDE8F04DA2E72DE9F04D81EA030404F0D6
:10070000004B21F0004514464FF0000A23F0004151
:1007100050EA050220D054EA01021DD0C5F30A5761
:100720000246C5F31303C1F31300C1F30A5640F4A4
:10073000801543F48013A7EB0608101BD64608F279
:10074000FD3873EB050002D308F1010801E09218AF
:100750005B41B8F1000F03DA00200146BDE8F08DDF
:1007600000204FF48011064684460EE0171B73EB01
:10077000050705D3121B63EB050306434CEA010C86
:1007800049084FEA300092185B4150EA0107EDD169
:1007900052EA030012D082EA040083EA050108430A
:1007A00005D0101BAB4106D20122002306E0002237
:1007B0004FF0004302E06FF0010253101AEB060005
:1007C0004CEB085110EB0A0041EB0B01BDE8F04D7A
:1007D000FFF734BF2DE9F04D00231A461B1A8A415A
:1007E00003DB00200146BDE8F08DC1F30A52C1F3DE
:1007F000130141F480154FF0000BD10702D100180E
:100800006D41521E0027044640F2FF11384601EBAD
:10081000620A3E468046024600204FF48011FFF7F0
:10082000B4FEC2197141BB1846EB0100B4EB030CD6
:1008300075EB000C04D3E41A65EB000517460E4671
:10084000241908F101006D4180463428E3DDF919CF
:1008500046EB0600091BA84103D24FF0FF321346B6
:1008600001E0002213461BEB070046EB0A51BDE8EE
:10087000F04DFFF7E3BEC1F30A52C1F3130140F29A
:10088000FF3341F480119A4202DA0020014670479A
:1008900040F233439A42A2F2334202DC5242FFF763
:1008A00074BEFFF763BE000030B5041E71F1000492
:1008B00004DB4FF00044404264EB0101141E73F16D
:1008C000000405DB1C464FF00043524263EB040377
:1008D000994208BF904230BD064C074D06E0E068E3
:1008E00040F0010394E8070098471034AC42F6D377
:1008F000FFF74EFCC03C0008E03C0008FEE77047F4
:10090000102000F035B8704790F83510022903D058
:100910008021416501207047052180F8351000686D
:10092000016821F0010101600020704770B50446A4
:1009300000F018F90546601C02D004480078044411
:1009400000F010F9401BA042FAD370BD5400002003
:1009500010B5102804D141010022034800F0FCF832
:1009600002490120087010BD001402401000002050
:10097000044910B50A68024202D00860FFF7E8FF98
:1009800010BD0000143C01402DE9F84F00224FF04B
:10099000010803254FF00F0E0B6808FA02F42340FC
:1009A000A3426ED14E68012E05D0022E03D0112E27
:1009B00001D0122E12D186684FEA420C05FA0CF7CC
:1009C000BE43CF6807FA0CF7374387604668A643F3
:1009D0000C79C4F30014944034434460C668570053
:1009E00005FA07FC8C6826EA0C06BC403443C46058
:1009F0004C68022C01D0122C13D1D40800EB8404D3
:100A0000A346D4F8209054074FEAD46A0EFA0AF6A7
:100A100029EA06090E6906FA0AF646EA0906CBF83B
:100A2000206006680C7926EA0C0604F00304BC403A
:100A3000344304604C68E40065D5364C266846F4BF
:100A400080462660246822F0030604F48044009463
:100A5000314C3444A446D4F808489607370F0EFAB0
:100A600007F6B4432D4EB04201D1002624E02C4EAF
:100A7000B04201D101261FE02A4EB04202D1022627
:100A80001AE040E0284EB04201D1032614E0274E80
:100A9000B04201D104260FE0254EB04201D1052617
:100AA0000AE0244EB04201D1062605E0224EB042B3
:100AB00001D1072600E00826BE402643CCF808688E
:100AC0001E4E34684F689C43FF0300D51C433460BE
:100AD0001A4C241D26684F689E43BF0300D51E4351
:100AE0002660164E083634684F689C43FF0200D5D6
:100AF0001C433460114E0C3634684F689C43BF026F
:100B000000D51C433460521C102AFFF445AFBDE8E9
:100B1000F88F0000443802400030014000000240DD
:100B20000004024000080240000C02400010024095
:100B30000014024000180240001C0240003C01402A
:100B40000069084000D001207047426931EA020282
:100B500000D10904816170470AB1816170470904BD
:100B6000FBE7000001488068704700005400002047
:100B700070B5040025D094F83D00002520B984F814
:100B80003C50204600F050F9242084F83D002068B5
:100B9000016821F0010101602068016841F4004111
:100BA00001602068016821F40041016000F0A4FAAE
:100BB0004D4A6168914201D84C4900E04C49884255
:100BC00001D2012070BD4B492368B0FBF1F15E6892
:100BD00026F03F060E435E606368934206D94FF4E9
:100BE000967359434FF47A73B1FBF3F12368491CB0
:100BF0001E6A26F03F06314319626168914210D89F
:100C00004900401EB0FBF1F2521CC2F30B02042A51
:100C100001D2042022E0B0FBF1F0401CC0F30B0035
:100C20001CE0A268F2B301EBC10303EB0116431E03
:100C3000B3FBF6F35B1C43F480431B0549D092B32E
:100C400001EBC10202EB0111401EB0FBF1F0401CB0
:100C5000C0F30B0040F4804040F400402168CA69B2
:100C60004CF6FF739A431043C861D4E9071001435F
:100C70002068026822F0C00211430160D4E9030138
:100C800001432068826848F2FF339A431143816030
:100C9000D4E9050108432168CA6822F0FF02104325
:100CA000C86001E00EE016E02068016841F0010133
:100CB00001602564202084F83D00256384F83E50BF
:100CC000002070BD01EB4106431EB3FBF6F35B1C35
:100CD000B3E70120C2E701EB4101401EB0FBF1F098
:100CE000401CC0F30B00B7E7A086010080841E0003
:100CF00000093D0040420F002DE9FF4F83B09A46A6
:100D0000DDE9119793460446DDF84080FFF72AFF9E
:100D1000054694F83D0020287FD11923012240493F
:100D20002046009500F03CFE002876D194F83C0067
:100D3000012872D0012084F83C0020680168C907AE
:100D400003D1016841F0010101602068016821F4CC
:100D500000610160212084F83D00402084F83E00BD
:100D600000262664C4F82480A4F82A90608D20858B
:100D70002C48E062CDE9007553465A462046049956
:100D800000F094FD70B930E02A463946204600F064
:100D900086FE58B1206C042804D12068016841F413
:100DA00000710160012007B0BDE8F08F606A216822
:100DB00000780861606A401C6062218D491E89B21A
:100DC0002185628D521E628522685369DB435B0771
:100DD0000BD469B100781061606A401C6062208D9C
:100DE000401E2085608D401E6085208D0028CBD15F
:100DF0002A463946204600F0ADFD0028CAD154F8F5
:100E00003D0B016841F400710160202004F81E09C7
:100E1000E67766770020C6E7FFE70220C3E7000019
:100E2000020010000000FFFF10B586B00446142138
:100E30006846FFF7FDF913492068884220D112481F
:100E4000016841F0020101600068694600F002009B
:100E50000590C020009012200190012002900320F4
:100E60000390042004900948FFF78EFD06481030D7
:100E7000016841F400110160006800F40010059061
:100E800006B010BD0054004030380240000402405B
:100E90000248816802781144816070475400002044
:100EA0000B4810B5016841F400710160016841F41C
:100EB00080610160016841F480710160032000F0ED
:100EC0006FF8002000F006F800F024F8002010BDB4
:100ED000003C024070B50D4D04464FF47A712878FD
:100EE000B1FBF0F00A490968B1FBF0F000F004FB37
:100EF00048B9102C07D200222146501E00F030F8CD
:100F000000206C6070BD012070BD00005400002006
:100F1000600000200A4808B5016841F48041016082
:100F2000006800F4804000900548001F016841F00F
:100F300080510160006800F08050009008BD000002
:100F400044380240002809DB00F01F0201219140D3
:100F50004009800000F1E020C0F800117047000057
:100F6000F0B40E4B1B680C46C3F30223C3F1070514
:100F7000042D00D90425191D072901D2002300E002
:100F8000DB1E012606FA05F1491E214099409E40CC
:100F9000761E16403143F0BC01F02EBC0CED00E093
:100FA000064900F0070208684FF6FF03184040EAC0
:100FB0000220034A10430860704700000CED00E077
:100FC0000000FA052DE9F0470E46050065D0DFF870
:100FD0001481D8F80000F7B200F00F00B04207D239
:100FE00088F80070D8F8000000F00F00B04254D12B
:100FF00028683D4C810712D5400703D5206840F48E
:10100000E05020602878000703D5206840F4604055
:1010100020602068A96820F0F0000843206028784C
:10102000C0072DD0304968680839012812D002283D
:1010300013D0032811D00968890700292DDA216807
:1010400021F0030101432160FFF78CFD814641F24D
:10105000883A0EE009688903EFE709688901ECE73F
:10106000FFF780FDA0EB0901514502D90320BDE83F
:10107000F0872068696800F00C00B0EB810FEFD1B9
:10108000D8F80010404601F00F01B14207D90770AF
:10109000006800F00F00B04201D00120E7E7287897
:1010A000400705D52068E96820F4E0500843206037
:1010B0002878000706D52068296920F4604040EAB6
:1010C000C100206000F038F82168084AC1F303111C
:1010D000515CC8400649086006480068FFF7FAFE00
:1010E0000020C4E7003C024008380240A63C00084B
:1010F0006000002058000020044805490068096885
:10110000044AC1F38221515CC8407047600000204E
:1011100008380240B63C00080448054900680968E0
:10112000044AC1F34231515CC8407047600000205E
:1011300008380240B63C0008154810B5006810F0A9
:101140000C02144813D01449042A0FD0082A0ED1D7
:101150000F4C241F2268236802F03F025B0207D570
:101160002068C0F38810A0FB010106E0084610BD0E
:101170002168C1F38811A1FB00010023FFF720F8CB
:101180002168C1F30141491C4900B0FBF1F010BDD9
:10119000083802400024F40040787D012DE9F84F22
:1011A00004006ED02078DFF83C93C007A9F1040555
:1011B0004AD009F104000168C1F38101012908D076
:1011C0000068C0F3810002280AD1D9F8000040026B
:1011D00006D52868800337D560680028E1D033E061
:1011E0006068B0F5803F10D0B0F5A02F286810D00F
:1011F00020F480302860286820F48020286060680F
:10120000A8B1FFF7AFFC06460DE0286840F4803037
:10121000F4E740F480202860F7E700BFFFF7A2FC66
:10122000801B642873D828688003F7D50CE0FFF78B
:1012300099FC064605E000BFFFF794FC801B64287C
:10124000F0D828688003F7D42078DFF89C828007E4
:101250004FF0000A3ED5A348001D016811F00C0FA5
:1012600008D00068C0F3810002280BD1D9F8000033
:10127000400207D42868800716D5E068012800D10D
:1012800012E02BE1E068B8B10120C8F80000FFF7D8
:1012900069FC064605E000BFFFF764FC801B0228DE
:1012A000C0D828688007F7D52868216920F0F800A1
:1012B00040EAC10028600DE0C8F800A0FFF752FC2A
:1012C000064604E0FFF74EFC801B02281FD8286862
:1012D0008007F7D42078000722D5824E83486169C1
:1012E000703671B101210160FFF73CFC074604E054
:1012F000FFF738FCC01B022809D830688007F7D5F3
:101300000EE0C0F800A0FFF72DFC074605E082E0E4
:10131000FFF728FCC01B02287DD830688007F7D46F
:101320002078400768D5DFF8BCB100270BF13C0BF3
:10133000DBF80000C0000BD4DBF8001041F0805156
:10134000CBF80010DBF80000012700F0805000907F
:10135000674E3068C00510D4306840F4807030604B
:10136000FFF700FC009005E0FFF7FCFB0099401A36
:10137000022850D83068C005F6D55A4EA0686C36A1
:1013800001280FD00528306810D020F0010030600F
:10139000306820F004003060A068B8B1FFF7E2FBCD
:1013A00000900FE0306840F00100F4E740F00400E6
:1013B0003060F7E7FFF7D6FB0099411A41F2883019
:1013C000814266D830688007F4D50EE0FFF7CAFB8B
:1013D000009007E0FFF7C6FB0099411A41F2883000
:1013E000814256D830688007F4D42FB1DBF8001062
:1013F00021F08051CBF80010A069C8B33949091D0C
:101400000968C1F3810102294AD00228504607D059
:10141000C8F8600000E03CE0FFF7A4FB04463BE0B6
:101420004746C8F86000FFF79DFB064605E000BF91
:10143000FFF798FB801B02282BD828688001F7D47F
:10144000D4E907010843A16A2A4A490802EB01418D
:10145000626A41EA8211084394F82C1040EA016163
:10146000C9F8001001203866FFF77CFB044606E04F
:1014700036E000BFFFF776FB001B022809D828687A
:101480008001F7D52CE000BFFFF76CFB001B0228A2
:1014900002D90320BDE8F88F28688001F4D41FE04A
:1014A0000128F7D0D9F80000E26900F480019142E8
:1014B00014D1226A00F03F0191420FD147F6C0716A
:1014C000626A0140914209D1A26A00F4403191421E
:1014D00004D1E16A00F07060884201D00120D9E7B0
:1014E0000020D7E70438024000004742800E474200
:1014F000007000400000FFFF10B5401EB0F1807F7B
:1015000001D3012010BD4FF0E02460610F2160176E
:1015100001F072F90020A06107202061002010BDB9
:101520007047000070B5026804461068D1685369BE
:1015300010F00F0F53D003F0010501F490762E4305
:101540005FD0C20705D0CA0503D5E26B42F00102A5
:10155000E263420705D5DA0703D0E26B42F00202EC
:10156000E263820705D5DA0703D0E26B42F004029A
:10157000E263020707D501F020022A4303D0E26BA1
:1015800042F00802E263E26B002A34D0800604D500
:10159000880602D5204600F0D7FF20684069E16B3D
:1015A000C0F3801001F008010143204624D000F070
:1015B000BDFF2068416949061AD5416921F0400103
:1015C0004161606BA0B11B490165606BFFF79CF93D
:1015D000002810D0606B016DBDE87040084783069D
:1015E0000FD58B060DD52046BDE8704000F0ACBF8E
:1015F0002046FFF795FF70BDFFF792FF0020E063E4
:1016000070BD030606D50B0604D52046BDE8704024
:1016100001F07AB84006F3D54806F1D5D1682046E6
:1016200021F04001D160202184F8391000F0E0F869
:1016300070BD00001D25000870B5040004D094F8AA
:101640003900002510B106E0012070BD84F8385043
:10165000204600F023F8242084F839002068C1686F
:1016600021F40051C160204600F0BAFF20680169F2
:1016700021F4904101612068416921F02A01416112
:101680002068C16841F40051C160E563202084F8FE
:10169000390084F83A00002070BD0000F0B587B032
:1016A000044614216846FEF7C3FD2A4F2368002232
:1016B00029490224032507262848BB4221D1264B6D
:1016C00014331F6847F010071F601B6803F01003F6
:1016D00005930B6843F001030B60096802AB01F04E
:1016E000010105916902CDE9001483E864006946AF
:1016F000FFF74AF9002211462520FFF731FC25208B
:1017000023E0174FBB4222D1134B10331F6847F41D
:1017100000371F601B6803F4003305930B6843F028
:1017200001030B60096802AB01F0010105910C2176
:10173000CDE9001483E864006946FFF725F900222B
:1017400001212620FFF70CFC2620FFF7FBFB07B04A
:10175000F0BD00000010014030380240000002409F
:101760000044004090F83A30202B22D1F9B1F2B178
:1017700090F83830012B1CD081628285C28500210F
:10178000C163222280F83A2080F838100168CA68C4
:1017900042F48072CA6001684A6942F001024A61FB
:1017A0000068C16841F02001C1600020704701203D
:1017B000704702207047000000680A4988420AD139
:1017C00009488178D82902D0452902D003E00121B7
:1017D00000E00221017004490122891C0348FFF73F
:1017E000C1BF00000010014010000020B80100201F
:1017F0007047000000B5034603E000BF00F036F874
:101800005B1C18780028F9D1FF2000F02FF8FF208A
:1018100000F02CF8FF205DF804EB00F027B8000082
:1018200010B50B46044602E000F020F8641C207856
:101830000028F9D13D2000F019F8222000F016F818
:1018400003E000BF00F012F85B1C18780028F9D103
:10185000222000F00BF8FF2000F008F8FF2000F035
:1018600005F8BDE81040FF20AFF3008002490A6888
:101870005206FCD54860704700100140FEE7016841
:101880004A69D24352050FD46FF480624A61002145
:1018900040F8301F202242738173026942F0040233
:1018A0000261017301207047002070472DE9F84361
:1018B000044600680D46DDE908970168984616461B
:1018C00041F4807101604B4600224FF00111204627
:1018D000009700F065F848B120680068C00502D59F
:1018E0004FF4007020640320BDE8F883216805F000
:1018F000FE0008613B464A461549204600F084F840
:1019000088B920684169806900903A464946204676
:1019100000F0C5F848B1206C042804D120680168A3
:1019200041F4007101600120DEE7F5B2B8F1010F6A
:1019300009D02168300A08613A464946204600F03D
:10194000AEF80028E7D1206805610020CCE7000050
:101950000200010070B516460D4604460DE0204613
:10196000FFF78DFF08B1012070BD681C05D0FFF79F
:10197000F9F8801BA84207D835B120684069C043F8
:101980004007ECD4002070BD002044F8300F202127
:101990006173A073216941F0200121612073E2E7A6
:1019A0002DE9F0471E4690460D460446C1F3074711
:1019B000DDF8209008E0701C06D0FFF7D3F8A0EB0C
:1019C0000900B0420FD876B12068012F18D0806985
:1019D00025EA00000004000C14D000214145EAD0A3
:1019E0000020BDE8F087002044F8300F202161730B
:1019F000A073216941F02001216120730120F0E7EB
:101A00004069E5E70121E9E72DE9F0479A4691466B
:101A10000E46044600254FF02008C1F3074725E095
:101A200020684069C043400514D42068016841F42F
:101A30000071016021686FF480604861256384F85B
:101A40003D8084F83E50206C40F00400206484F80F
:101A50003C501FE0B9F1FF3F08D0FFF783F8A0EB3F
:101A60000A0149450CD8B9F1000F09D02068012FAF
:101A700013D0806926EA00000004000C0BD0CFE7E9
:101A800044F8305F84F80D80A573206940F0200091
:101A9000206125730120BDE8F0874069EAE770B551
:101AA00016460D4604460DE02046FFF7E8FE08B155
:101AB000012070BD681C05D0FFF754F8801BA842B8
:101AC00007D835B120684069C0430006ECD4002037
:101AD00070BD002044F8300F20216173A07321698C
:101AE00041F0200121612073E2E700002DE9F0417F
:101AF00086B014216846FEF79BFB3A480024016833
:101B000041F010010160016801F0100105910168C8
:101B100041F020010160016801F020010591016898
:101B200041F080010160016801F0800105910168C8
:101B300041F001010160016801F0010105910168B6
:101B400041F040010160016801F040010591016828
:101B500041F0020101600068012200F00200224F02
:101B60005502059029463846FEF7F6FFDFF87C80DF
:101B70000122C0214046FEF7EFFF6E1000223146E1
:101B80004046FEF7E9FF102000901948CDE9010416
:101B900069461848FEF7F8FE00950125CDE9015485
:101BA000694638460394FEF7EFFEC02000901120EE
:101BB000CDE90104694640460394FEF7E5FE009630
:101BC000CDE90154694640460394FEF7DDFE00224C
:101BD00002210A20FFF7C4F90A20FFF7B3F906B083
:101BE000BDE8F08130380240001402400018024085
:101BF00000002110001002400D4810B50B49016093
:101C00000C49416000214FF480428160C0E9031219
:101C100041618161C1610162FEF7AAFF002803D022
:101C2000BDE81040FEF76FBE10BD0000005400403C
:101C300064010020A08601000C4810B50A4901602B
:101C40004FF4E1314160002181600C22C160C0E9A4
:101C500004128161C161FFF7EFFC002803D0BDE8E9
:101C60001040FEF750BE10BD00100140B80100202A
:101C70000C4810B50A4901604FF4E1314160002180
:101C800081600C22C160C0E904128161C161FFF76B
:101C9000D3FC002803D0BDE81040FEF734BE10BDD1
:101CA00000440040F8010020FEE77047002000F0EB
:101CB00001B8000070B506465FF0000404F1B00002
:101CC000C0B200F061FD002000F05EFD102000F0C9
:101CD0005BFD0025304600F069FD6D1CEDB2802DE6
:101CE000F8D3641CE4B2082CE8D370BD10B54FF4EF
:101CF0007A70FEF71BFEAE2000F046FD202000F0BB
:101D000043FD102000F040FDB02000F03DFDC82054
:101D100000F03AFD002000F037FD102000F034FD07
:101D2000402000F031FD812000F02EFDFF2000F06A
:101D30002BFDA12000F028FDA62000F025FDA82005
:101D400000F022FD3F2000F01FFDA42000F01CFD4C
:101D5000D32000F019FD002000F016FDD52000F082
:101D600013FDF02000F010FDD92000F00DFD222021
:101D700000F00AFDDA2000F007FD122000F004FD5B
:101D8000DB2000F001FD202000F0FEFC8D2000F0A3
:101D9000FBFC142000F0F8FCBDE81040AF2000F080
:101DA000F3BC10B50446B031C8B200F0EDFC102011
:101DB00040EA141000F0E8FC04F00F00BDE8104009
:101DC00040F0010000F0E0BC2DE9F047002591460D
:101DD0008A460446012B22D0DFF8BC80022B24D196
:101DE00055E02038C7B27E2C04D90AF10100002446
:101DF00000F0FF0A51462046FFF7D3FF07EB4700EC
:101E0000002608EB4007B85D00F0D0FC761CF6B267
:101E1000062EF8D3A41D6D1CE4B2EDB201E0DFF88C
:101E20007C8019F805000028DBD1BDE8F087203858
:101E3000C7B2782C04D90AF10100002400F0FF0A8F
:101E400051462046FFF7ADFF5FF0000606EB071195
:101E500018F8010000F0AAFC761CF6B2082EF5D3A3
:101E60000AF10100C1B22046FFF79BFF5FF00006B8
:101E700006EB071101EB0800007A00F097FC761CD6
:101E8000F6B2082EF4D308346D1CE4B2EDB219F8A2
:101E900005000028CBD1C8E7B63600088E3400080C
:101EA0002DE9FC4300264FF001084FF007094FF0E1
:101EB000800C6A468DF803608DF802608DF805602D
:101EC0008DF801802F2305248DF804608DF8009093
:101ED000002109E05B1EDBB2072902D2491CC9B20E
:101EE00002E00021641EE4B22CFA01F5075D2F42E6
:101EF00001D1002CEED1A3F10801CCB214E00521F0
:101F0000551815F8015C2D0602D509B1012700E02E
:101F10000027555C6D0055543D445554491EC9B2C7
:101F2000FF29EDD3641EE4B2002CE8D10021445C0B
:101F3000555C6C404454491CC9B20529F7D9082B9B
:101F4000B8D80078BDE8FC8310B582B22421002007
:101F500000F05EF9BDE810406420FEF7E7BC704772
:101F60000022002101E0491C89B28142FBD3521CAE
:101F700092B2042AF5D370472DE9FC4700264006AB
:101F8000224C8846050E00BF00F01EF9761E16F0A2
:101F9000FF0634D000F0F2F8284600F0DBF8002805
:101FA000F2D1404600F0D6F80028EDD100F0E6F876
:101FB0006F1CF8B200F0CEF80028E5D100F08EF8E2
:101FC0002070002000F08AF86070012000F086F890
:101FD000814600F0F9F88DF805508DF804808DF8F1
:101FE000037020788DF8020060788DF801000020E1
:101FF0008DF800006846FFF753FF4845C4D12078AC
:10200000617840EA01206080BDE8FC870000002084
:1020100010B507210020FFF7AFFFFEF736FA9FED5E
:10202000081B53EC112BFEF7BEF99FED071B53EC79
:10203000112BFEF7B2F9FEF767FA00EE100A10BD99
:102040007B14AE47E17A943F66666666661271401D
:1020500010B506210020FFF78FFFFEF716FA9FED5F
:10206000081B53EC112BFEF79EF99FED071B53EC59
:10207000112BFEF792F9FEF747FA00EE100A10BD99
:102080007B14AE47E17A943F6666666666127140DD
:1020900070B5114D012280212846FEF75DFD0F200D
:1020A000FFF75EFF012240212846FEF755FD232061
:1020B000FFF756FF80212846FEF742FD08B10124B4
:1020C00000E00024002240212846FEF745FD1420B0
:1020D000FFF746FF204670BD0018024070B5064667
:1020E0005FF00804FFF7D4FF00284FEA450003D053
:1020F000C0B240F0010501E000F0FE05641E14F0DE
:10210000FF04EFD1304600F003F8284670BD000010
:1021100010B50F4CC8B1012280212046FEF71CFDEE
:102120000F20FFF71DFF012240212046FEF714FD7E
:102130001920FFF715FF002240212046FEF70CFD75
:10214000BDE810401420FFF70BBF0022E4E70000B9
:102150000018024070B505460824280601D5012064
:1021600000E00020FFF7D4FF6806050E641E14F09F
:10217000FF04F2D1BDE87040FFF78ABF10B5114CE3
:10218000012280212046FEF7E7FC2320FFF7E8FE2E
:10219000012240212046FEF7DFFC2320FFF7E0FE6E
:1021A000002280212046FEF7D7FC2320FFF7D8FE2F
:1021B000002240212046FEF7CFFCBDE8104023203E
:1021C000FFF7CEBE0018024010B5104C002240218F
:1021D0002046FEF7C1FC2320FFF7C2FE002280212B
:1021E0002046FEF7B9FC2320FFF7BAFE012240216A
:1021F0002046FEF7B1FC2320FFF7B2FE2046012265
:10220000BDE810408021FEF7A7BC00000018024086
:102210002DE9FC47002440068DF80310060E8DF8CA
:1022200002204FEA12298DF805408DF801901546DD
:102230000F468DF804608DF800406846FFF730FEC9
:102240004FEA0008FFF7C0FF641E14F0FF0419D026
:10225000FFF794FF3046FFF77DFF0028F2D13846A4
:10226000FFF778FF0028EDD1E8B2FFF773FF0028F1
:10227000E8D14846FFF76EFF0028E3D14046FFF75C
:1022800069FFDFE7BDE8FC877047FEF701BE00008D
:1022900030B593B030216846FDF7CAFF14210CA871
:1022A000FDF7C6FF19480025016841F08051016023
:1022B000006800F0805011901548016841F4804199
:1022C00001600068022400F4804011900120039016
:1022D00010200490009406940820CDE90750A8200F
:1022E000CDE9090404200B906846FEF757FF0CA9BE
:1022F0000F2081E831004FF4A0500F90E0021090C1
:1023000005210CA8FEF75EFE13B030BD4038024038
:10231000007000400548016841F470010160034904
:102320004FF00060803908607047000088ED00E0E1
:102330002DE9F0476C4F6D4DDFF8B4816D4CDFF83F
:10234000B8910646012801D0FEB141E0FFF760FEDA
:1023500087ED000A0A20FEF7E9FAFFF759FE85ED3E
:10236000000A0A20FEF7E2FAFFF752FE88ED000AA3
:102370000A20FEF7DBFAFFF74BFE84ED000A0A2085
:10238000FEF7D4FAFFF744FE1DE0FFF761FE87ED8C
:10239000000A0A20FEF7CAFAFFF75AFE85ED000A86
:1023A0000A20FEF7C3FAFFF753FE88ED000A0A2061
:1023B000FEF7BCFAFFF74CFE84ED000A0A20FEF798
:1023C000B5FAFFF745FE89ED000A0A20FEF7AEFADE
:1023D000D7ED002A95ED003AD8ED001A94ED001AD9
:1023E00032EE830A99ED002AF1EE040A284630EE17
:1023F000210A424D30EE010A70EE023A83EEA00A45
:1024000085ED000A72EEC02A33EE403A71EEC01A32
:1024100031EE401A62EEA22A23EE033A32EE400A6F
:1024200061EEA11AC7ED002A32EE832A80ED003A50
:10243000C8ED001A21EE011A72EE211A20EE000AF0
:1024400084ED001A2E4F31EE811A89ED000A31EE2B
:10245000001A81EE200A87ED000A10EE100AFEF73E
:1024600040F841EC100B00F0DBFF00EE100A2548AD
:10247000012EF8EEC00AC7ED000A99ED000A94EDAE
:10248000001A224F224C30EE410A90ED001A1E48ED
:1024900030EE010A80ED000A70EE200A80EE201A6C
:1024A00087ED001A12D0002E0ED1FFF7D1FD84ED7A
:1024B000000AD5ED000A97ED001A164830EE600AC2
:1024C00041EE000AC0ED000ABDE8F087FFF7A0FD6D
:1024D00084ED000AD5ED000A97ED001A0E4830EEA3
:1024E000600A41EE000AEDE74000002044000020B1
:1024F000480000204C000020500000203800002040
:102500002C0000200C000020300000203C000020A7
:1025100034000020280000202400002010B5806B2B
:102520000021C185C184FEF7FBFF10BD0168CA68A8
:1025300022F49072CA6001684A6922F001024A617D
:10254000202180F83A10704710B590F83A102229EF
:1025500001D0022010BD8168B1F5805F11D0016902
:10256000002901681FD0496801F07F03816A4A1C75
:1025700082620B70C18D491E0904090CC18518D0F7
:102580002BE00269816A002A0268526805D0D2B243
:102590000A80816A491C8162ECE7C2F308020A8062
:1025A000816A891CF7E74A68816A4B1C83620A705A
:1025B000E0E70168CA6822F02002CA600168CA68C0
:1025C00022F48072CA6001684A6922F001024A61FD
:1025D000202180F83A10FFF7EFF8002010BD00002E
:1025E0002DE9F041044600680169E26821F4405198
:1025F000114301612169A068E269084361691143DF
:1026000008432168CA6849F20C639A430243CA60CE
:1026100020684169A26921F4407111434161E06978
:10262000192764253226B0F5004F354A3549206810
:102630004FF0000806D0884201D0904236D1FEF714
:102640006BFD35E0884201D0904202D1FEF764FD77
:1026500001E0FEF751FD61684A18A0FB070148EB55
:102660000803FDF7ADFD0146B0FBF5F00201B1FB3B
:10267000F5F06FF01803584301EB800006EBC00043
:10268000B0FBF5F000F0F80002EB4002B1FBF5F012
:10269000584301EB800006EBC000B0FBF5F000F002
:1026A0000700216810448860BDE8F081FEF724FD32
:1026B00061688B0F8A00A0FB0701FDF781FD0146D1
:1026C000B0FBF5F06FF01802504301EB800006EB11
:1026D0000010B0FBF5F000F0F002B1FBF5F002EBFA
:1026E0000012B1FBF5F06FF01803584301EB8000C6
:1026F00006EB0010B0FBF5F000F00F00D1E7000092
:10270000001401400010014090F83910212901D037
:10271000022070478168B1F5805F016A0BD04A1CC6
:102720000262026809785160C18C491E0904090CD3
:10273000C1840ED017E009880268C1F30801516016
:1027400001690029016A02D0491C0162ECE7891C79
:10275000FBE70168CA6822F08002CA600068C168AD
:1027600041F04001C1600020704700000148FEF7C1
:10277000D9BE0000B80100200148FEF7D3BE00001A
:10278000F8010020FEE7000001B584B001216422B9
:1027900004A88DE807000B46002278210248FEF7C6
:1027A000ABFA05B000BD00006401002001B584B0A3
:1027B0000121642204A88DE807000B4640227821FD
:1027C0000248FEF799FA05B000BD00006401002040
:1027D0000FB4084B10B504A902AA039800F0E4F85E
:1027E000044602A9002000F076FC204610BC5DF8EB
:1027F00014FB0000D73000080907090E002804DB8D
:1028000000F1E02080F80014704700F00F0000F1A4
:10281000E02080F8141D704702E008C8121F08C1AC
:10282000002AFAD170477047002001E001C1121F51
:10283000002AFBD170470000014908607047000082
:10284000640000202DE9FF5FDDE90220010DDDF8C5
:1028500038B0024318D044F61050A1F2FF31414382
:102860000D140F98012820D0A5EB0B00401C5FEA47
:10287000000A4FF00004474EDFF81C91A046504676
:1028800016D5CAF1000728E00F98012443A20128B9
:1028900008D0002100980F9BC0E90021C0E9024345
:1028A000BDE8FF9F6FEA0B01F4E7CBF10000DEE724
:1028B000074612E0F80707D022463346404649460D
:1028C000FDF771FD8046894622463346104619467B
:1028D000FDF769FD04460E467F10002FEAD1DDE9C1
:1028E0000201BAF1000F42464B4602DAFDF75BFDEA
:1028F00001E0FDF700FF04460E460022284BFDF7DD
:10290000D3FF03D84FF0FF30014607E00022254BEC
:1029100020463146FDF7A0FCFDF7ADFF102409E08D
:10292000002C0ADB0A220023FDF74AFC019B30320F
:102930001A55641E50EA0102F2D1641C019AC4F1D6
:10294000110314440F9A012A03D0012208430DD128
:102950000AE0084304D000204FF0110B0F9080E7ED
:10296000A3EB0B056D1E0DE05B4504DD4FF000028F
:1029700005F1010504E003DA4FF00002A5F10105BD
:10298000002AECD000980F99C0E90231C0E9004557
:1029900086E70000000024400000F03F3000000007
:1029A0000000F0430000E03F2DE9FF4F95B09B464B
:1029B0008946064600250FE2252877D100242746C0
:1029C000F84A0121059400E0044316F8013F203B3A
:1029D00001FA03F01042F7D130782A2811D06FF0B5
:1029E0002F033078A0F13002092A16D8059A44F056
:1029F000020402EB820203EB42021044761C0590B3
:102A0000EFE759F8042B0592002A03DA504244F408
:102A10000054059044F00204761C30782E2816D11C
:102A200016F8010F44F004042A280DD06FF02F028D
:102A30003078A0F13003092B09D807EB870302EBAC
:102A40004303C718761CF3E759F8047B761C3078EB
:102A50006C280FD006DC4C2817D068280DD06A28C7
:102A600014D104E0742810D07A280FD10DE044F47A
:102A700000140AE044F4801401E044F44014727835
:102A8000824202D104F58014761C761C30786628C8
:102A90000BD013DC582877D009DC002875D04528E6
:102AA000F6D04628F4D047281AD19DE118E06328D3
:102AB00035D0642879D0652812D195E1702873D07B
:102AC00008DC6728F1D069286FD06E280DD06F28F8
:102AD00006D1B5E073282CD0752875D0782874D02D
:102AE0005A46179990476D1C75E1C4F302500228AD
:102AF00009D003280DD0D9F8001004280DD00D609E
:102B000009F1040967E1D9F80010EA17C1E9005298
:102B1000F6E7D9F800100D80F2E70D70F0E719F82C
:102B2000041B8DF8001000208DF80100EA460120FA
:102B300003E059F804AB4FF0FF3061074FF000019C
:102B400002D40DE008F101018846B9420FDA804550
:102B5000F8DB1AF808100029F4D108E008F10101A7
:102B600088468142FADB1AF808100029F6D1059848
:102B70005B46A0EB080721463846179A00F094FA06
:102B8000284400EB080507E04DE029E10DE01AF8C4
:102B9000010B5A4617999047B8F10108F7D25B46E6
:102BA00021463846179A13E142E00A220092C4F304
:102BB00002524FF0000A022A08D059F804CB032A27
:102BC0004FEAEC710AD00DE029E02AE009F1070193
:102BD00021F00702F2E802C1914609E00FFA8CFCED
:102BE0004FEAEC71042A03D14FFA8CFC4FEAEC71E6
:102BF000002907DA0A460021DCF1000C61EB020132
:102C00002D2202E0220504D52B228DF8042001227A
:102C100003E0E20701D02022F7E7904659E00A21BD
:102C200002E010220DE010214FF0000A00910BE0AD
:102C300010224FF0000A44F004040827009203E039
:102C400008224FF0000A0092C4F30252022A05D073
:102C500059F804CB0021032A08D009E009F1070143
:102C600021F00702F2E802C1914605E01FFA8CFC50
:102C7000042A01D10CF0FF0C4FF00008220728D5E0
:102C8000702806D0009B83F0100353EA0A0305D096
:102C90000EE040228DF80420012208E05CEA0102E7
:102CA00006D030228DF804208DF8050002229046CF
:102CB000009B83F0080353EA0A030AD15CEA01028D
:102CC00001D1620705D530228DF804204FF00108AC
:102CD0007F1E582804D034A003900EA802900DE067
:102CE00036A0F9E753466046009AFDF769FA844634
:102CF0000398825C0298401E029002705CEA010018
:102D0000F0D1029806A9081A00F1200A600702D53E
:102D100024F4803400E00127574502DDA7EB0A00C8
:102D200000E0002000EB0A01009005984144401AA1
:102D30000590E00306D45B462146179A059800F0FB
:102D4000B3F90544002706E001A85A46C05D17996B
:102D500090476D1C7F1C4745F6DBE0030CD55B46B6
:102D60002146179A059800F09FF9054404E03020A9
:102D70005A46179990476D1C0099481E00900029EB
:102D8000F5DC08E0029802995A460078491C029145
:102D9000179990476D1CBAF10001AAF1010AF1DC04
:102DA00065E100000928010030313233343536370F
:102DB0003839616263646566000000003031323387
:102DC0003435363738394142434445460000000027
:102DD00000F058F90544761C307800287FF4ECADFB
:102DE00019B02846BDE8F08F620700D4062709F124
:102DF000070222F0070CFCE80223E14603F000483A
:102E00005FEA080C02D00FF2702C0DE05FEA045C60
:102E100002D50FF2682C07E05FEAC47C02D00FF203
:102E2000602C01E0AFF2700C4FF0FF3823F000434C
:102E3000CDF850C065280CD006DC452809D04628BE
:102E40001DD047283DD13DE0662818D067287ED1A7
:102E500038E00021112F01DB112000E0781CCDE9C2
:102E6000000106A90EA8FFF7EDFCDDE90F010E9A9F
:102E700003910021009207F1010A04914DE04FF007
:102E800000400097CDE9011006A90EA8FFF7DAFC73
:102E9000DDE90F0203920E9B11990022DDF80CA0D0
:102EA0000093049211B9791C00EB010AB7EB0A00F8
:102EB00004D4C0F1FF3007F1010A0490AAEB070027
:102EC000019044E0012F00DA01270021112F01DDDC
:102ED000112000E03846CDE9000106A90EA8FFF751
:102EE000B1FCDDE90F010E9A0391002104910092DB
:102EF000BA4621070CD40399514500DA8A46BAF143
:102F0000010F05DD009AAAF10101515C302908D0BA
:102F1000B84202DA10F1040F06DA0121CDE90110FE
:102F200015E0AAF10101E9E7002805DC0499014454
:102F30000491AAEB000102E0411C514500DD8A46E4
:102F40000499401A401C01904FF000400290200765
:102F500004D40198504501DBCDF8048000208DF8A1
:102F60004F0002980DF14F07B0F1004F25D02B20F4
:102F70000E9002984FF0020800280CDA40420290AE
:102F80002D200E9007E00A210298FDF7D9FA303182
:102F9000029007F8011DB8F10001A8F10108F2DC68
:102FA00002980028EFD1791E0E980870307800F052
:102FB000200040F0450007F8020D12A8C01B00F1E8
:102FC00007081498007800B1012000EB0A0101986D
:102FD00001EBE07105984144401A401E0590E00362
:102FE00006D45B462146179A059800F05DF8054423
:102FF0001498007818B15A46179990476D1CE00351
:1030000024D55B462146179A059800F04DF80544F3
:103010001CE00498002807DBDDE90301884203DD9A
:103020000098405C179901E0179930205A46904764
:10303000049805F10105401C04900198401E019080
:1030400004D12E205A46179990476D1CBAF1000101
:10305000AAF1010ADDDC05E017F8010B5A461799C1
:1030600090476D1CB8F10001A8F10108F4DC5B4643
:103070002146179A0598ABE62D0000002B000000B2
:10308000200000002DE9F041044600251E461746A9
:10309000880404D405E039462020B0476D1C641E26
:1030A000F9D52846BDE8F0812DE9F0410446002518
:1030B0001E469046C80301D5302700E0202788042B
:1030C00004D505E041463846B0476D1C641EF9D56D
:1030D0002846BDE8F0810A68531C0B6010707047E9
:1030E0002DED048BFDF7DCFEFFF7D2F8FEF7FEFCBA
:1030F000FEF7A2FDFEF780FDFEF7BAFD0122A5490D
:10310000A548FEF72FFBA3490122491CA348FEF75F
:1031100029FBA34E4FF48075002229463046FDF767
:103120001BFD9C4C9F4F641EA068FEF70DFFFEF731
:10313000DDFDFEF7BBFDFF20FEF7BCFD0020FEF726
:10314000B9FD3220FDF7F2FB0120FFF7F1F894ED15
:10315000050A10EE100AB842E6DCB5EEC00AF1EE40
:1031600010FAE1D36420FDF7E1FB0020FFF7E0F85F
:1031700094ED060A10EE100AB842D5DCB5EEC00A8E
:10318000F1EE10FAD0D36420FDF7D0FB022386A223
:1031900006210020FEF718FEDFF81C824FF40077AE
:1031A0002078012801D00228FAD100223946404671
:1031B000FDF7D2FC29463046FDF7C7FC0120FFF79A
:1031C000B7F86069FDF78DF941EC100B7BA153EC6A
:1031D000102B7D48FFF7FCFA02237B4A00211420C4
:1031E000FEF7F2FD6420FDF7A1FB29463046FDF70E
:1031F000ACFC0020FFF79CF86420FDF797FB294604
:103200003046FDF7A2FC94ED058A94ED060A38EEEF
:10321000400A10EE100AFDF764F99FED6C1B53ECA9
:10322000112BFDF7C0F841EC190B18EE100AFDF751
:1032300058F953EC192BFDF70FF8FDF765F900EE7F
:10324000100AF2EE040A84ED030A20EE201A68EE5A
:10325000200A10EE100A84ED011AC4ED040AFDF7ED
:1032600040F941EC100B55A153EC102B5648FFF7D9
:10327000AFFA0223544A19461420FEF7A5FD0A208E
:10328000FDF754FBE068FDF72CF941EC100B4E48BC
:1032900053EC102B4FA10A30FFF79AFA4A494FA07E
:1032A0000A31FEF7BDFA6069FDF71BF941EC100B1E
:1032B000454853EC102B47A15A30FFF789FA424991
:1032C00048A05A31FEF7ACFA0A20FDF72FFB6068E0
:1032D000FDF707F99FED458B53EC182BFCF7BCFF6E
:1032E000FDF7E0F80246384842A13230FFF770FAA5
:1032F000354941A03231FEF793FA0A20FDF716FB5B
:103300002069FDF7EEF853EC182BFCF7A5FFFDF74D
:10331000C9F802462C4837A1AA30FFF759FA2A49C2
:1033200037A0AA31FEF77CFA2078012802D00228C3
:103330000BD016E00A20FDF7F9FA234832A18230BB
:10334000FCF781FF2048823009E00A20FDF7EEFA01
:103350001D4830A1D230FCF776FF1B48D230FEF773
:1033600049FA40F6B830FDF7E1FA01223946404605
:10337000FDF7F2FB002229463046FDF7EDFBFEF794
:1033800095FC022308A206210020FEF71DFD002067
:10339000207005E711000020F8010020B80100208E
:1033A000001802400000484254656D204368656380
:1033B0006B20526561647900001402402054203D66
:1033C00020252E3166205E0068000020A4703D0A92
:1033D000D7A3D03F252E31660000000074372E742D
:1033E0007874000074322E747874000000000000BD
:1033F0000000E03F2564000074362E7478740000ED
:1034000074342E7478740000636C69636B20382CFC
:1034100031000000636C69636B2031362C31000091
:1034200000B52DED048B83B041EC190BFDF7D2F9FB
:1034300041EC180B18EE100A18EE901A8DED008B67
:10344000002818BF0120084320F00040C0F17F6031
:1034500000F1E040C00F14D019EE101A19EE900AD6
:103460008DED009B002918BF0121084320F000408A
:10347000C0F17F6000F1E040C00F04BF0120FFF702
:10348000DBF951EC180B03B0BDEC048B00BD000060
:10349000000000000000002F0000000007000700EF
:1034A00000147F147F1400242A7F2A12006264080B
:1034B0001323003649552250000005030000000088
:1034C0001C224100000041221C000014083E081488
:1034D0000008083E0808000000A060000008080876
:1034E0000808000060600000002010080402003E90
:1034F0005149453E0000427F40000042615149462B
:10350000002141454B31001814127F10002745451A
:103510004539003C4A49493000017109050300362C
:103520004949493600064949291E0000363600003F
:103530000000563600000008142241000014141444
:10354000141400004122140800020151090600323F
:103550004959513E007C1211127C007F494949367D
:10356000003E41414122007F4141221C007F4949E8
:103570004941007F09090901003E4149497A007F1C
:103580000808087F0000417F4100002040413F01C2
:10359000007F08142241007F40404040007F020C21
:1035A000027F007F0408107F003E4141413E007FC2
:1035B00009090906003E4151215E007F091929468B
:1035C0000046494949310001017F0101003F404067
:1035D000403F001F2040201F003F4038403F006315
:1035E0001408146300070870080700615149454337
:1035F00000007F41410000552A552A5500004141F5
:103600007F000004020102040040404040400000EE
:1036100001020400002054545478007F4844443888
:1036200000384444442000384444487F003854540F
:10363000541800087E0901020018A4A4A47C007F8D
:10364000080404780000447D4000004080847D0030
:10365000007F102844000000417F4000007C0418D7
:103660000478007C0804047800384444443800FCA2
:10367000242424180018242418FC007C08040408BE
:1036800000485454542000043F444020003C404033
:10369000207C001C2040201C003C4030403C00446A
:1036A00028102844001CA0A0A07C004464544C4472
:1036B0001414141414140000000000000000000092
:1036C000000000000000000000F800000000000002
:1036D00000333000000000100C06100C0600000043
:1036E00000000000000040C07840C0784000043F67
:1036F00004043F040400007088FC08300000001837
:1037000020FF211E0000F008F000E018000000215A
:103710001C031E211E0000F00888700000001E21FE
:1037200023241927211010160E00000000000000AD
:10373000000000000000000000E01804020000008B
:1037400000071820400000020418E00000000040BC
:10375000201807000000404080F080404000020236
:10376000010F01020200000000F000000000010152
:10377000011F01010100000000000000000080B0F6
:1037800070000000000000000000000000000001C8
:1037900001010101010100000000000000000030F3
:1037A000300000000000000000008060180400608D
:1037B00018060100000000E010080810E000000FEB
:1037C000102020100F00001010F800000000002052
:1037D000203F20200000007008080888700000309A
:1037E0002824222130000030088888483000001842
:1037F000202020110E000000C02010F8000000075B
:103800000424243F240000F80888880808000019D0
:10381000212020110E0000E0108888180000000F01
:10382000112020110E0000380808C83808000000D8
:10383000003F000000000070880808887000001C2D
:10384000222121221C0000E010080810E0000000E6
:10385000312222110F00000000C0C0000000000053
:103860000030300000000000008000000000000078
:10387000806000000000000080402010080000016F
:103880000204081020004040404040404000040432
:1038900004040404040000081020408000000020FC
:1038A000100804020100007048080808F000000039
:1038B000003036010000C030C828E810E0000718CA
:1038C000272423140B000000C038E0000000203C37
:1038D00023020227382008F8888888700000203FDB
:1038E000202020110E00C0300808080838000718F2
:1038F00020202010080008F808080810E000203FE9
:10390000202020100F0008F88888E8081000203FC9
:1039100020202320180008F88888E8081000203F9D
:10392000200003000000C030080808380000071815
:103930002020221E020008F808000008F808203F96
:10394000210101213F20000808F80808000000209C
:10395000203F2020000000000808F8080800C08070
:1039600080807F00000008F888C028180800203FE9
:1039700020012638200008F8080000000000203F41
:1039800020202020300008F8F800F8F80800203F38
:10399000003F003F200008F830C00008F808203F32
:1039A000200007183F00E01008080810E0000F1082
:1039B000202020100F0008F808080808F000203F19
:1039C000210101010000E01008080810E0000F18B4
:1039D000242438504F0008F8888888887000203FD9
:1039E0002000030C302000708808080838000038D8
:1039F000202121221C00180808F8080818000000DF
:103A0000203F2000000008F808000008F808001F08
:103A1000202020201F000878880000C838080000F7
:103A200007380E010000F80800F80008F800033C11
:103A30000700073C030008186880806818082030D9
:103A40002C03032C30200838C800C83808000000B8
:103A5000203F2000000010080808C838080020385F
:103A6000262120201800000000FE020202000000B3
:103A7000007F40404000000C30C00000000000000B
:103A800000010638C00000020202FE0000000040F3
:103A900040407F0000000000040202020400000019
:103AA0000000000000000000000000000000808016
:103AB00080808080808000020204000000000000FE
:103AC00000000000000000008080808000000019DD
:103AD000242222223F2008F8008080000000003FBE
:103AE000112020110E000000008080800000000ED8
:103AF000112020201100000000808088F800000EB6
:103B0000112020103F200000808080800000001FD6
:103B1000222222221300008080F08888881800204A
:103B2000203F202000000000808080808000006B0B
:103B300094949493600008F8008080800000203FF7
:103B4000210000203F200080989800000000002005
:103B5000203F20200000000000809898000000C056
:103B60008080807F000008F8000080808000203F77
:103B700024022D302000000808F80000000000207A
:103B8000203F202000008080808080808000203FB7
:103B900020003F20003F8080008080800000203F88
:103BA000210000203F200000808080800000001F56
:103BB000202020201F00808000808000000080FFE7
:103BC000A12020110E000000008080808000000EE7
:103BD000112020A0FF808080800080808000202035
:103BE0003F212000010000008080808080000033A1
:103BF000242424241900008080E08080000000003C
:103C0000001F202000008080000000808000001F36
:103C1000202020103F2080808000008080800001D4
:103C20000E300806010080800080008080800F3008
:103C30000C030C300F00008080008080800000208A
:103C4000312E0E31200080808000008080808081B5
:103C50008E70180601000080808080808000002126
:103C6000302C2221300000000000807C0202000085
:103C70000000003F404000000000FF000000000086
:103C80000000FF0000000002027C800000000040F5
:103C9000403F000000000006010102020404000091
:103CA0000000000000000000000000000000010211
:103CB00003040607080900000000010203040000D5
:103CC000E03C000800000020680000001828000800
:103CD000483D000868000020D005000028280008A2
:103CE000000000000000000000003442CDCCCC3DBC
:103CF000000000000000000032F30000000000009F
:103D000000000000000000000000000000000000B3
:103D100000000000000000000000000000000000A3
:103D20000000000000000000000000000000000093
:103D30000000000001000000100000000000000072
:083D40000024F4000000000063
:040000050800018965
:00000001FF
